:041FD100310D0A00C4
:10139C0060440181303030303030303030303030DB
:1013AC003030303030303030303030303030303031
:1013BC003030303030303030303030303030303021
:1013CC000000000000000000000000000000000011
:1013DC0000000000000000004101800041017E007F
:0413EC0041017F003C
:100D4800E4900122F0A3F0A3F0A3F0A3F0A3F0A392
:100D5800F0A3F0A3F0A3F0A3F0A3F0A3F0A3F0A3F3
:100D6800F0A3F0438E40121DC67BFF7A1F79D11283
:100D78001D31900129E004F07006900128E004F08C
:100D880090012BE004F0700690012AE004F0900135
:100D980028E0FEA3E0FF7C037DE7120C9BED4C707E
:100DA80040121A6A900124EEF0A3EFF0C3940FEEFC
:100DB8009400500890017E7401F08025900124E091
:100DC800FEA3E0FFC3940FEE94004010EF941EEED4
:100DD8009400500890017E7402F08005E490017E32
:100DE800F0900128E0FEA3E0FF7C0F7D9F120C9B92
:100DF800ED4C700B121718900122EEF0A3EFF09053
:100E08000128E0FEA3E0FF7C1B7D57120C9BED4CF4
:100E180070231218DD121F15900126EEF0A3EFF0D3
:100E2800C39414EE9400500890017F7401F080057B
:100E3800E490017FF0900128E0FEA3E0FF7C127DA2
:100E48005B120C9BED4C7003121FA3900128E0FE6F
:100E5800A3E0FF7C167D43120C9BED4C7003121926
:100E680063D3900129E094B8900128E0940B506274
:100E7800900124E0FAA3E0FB7C007D0AFFAE021299
:100E88000C9B90011AEDF07C007D64AF03AE02125A
:100E98000C9B7E007F0ACFCDCFCECCCE120C9BA36D
:100EA800EFF0900124E0FEA3E0FF7C037DE8120C44
:100EB8009B7E007F64CFCDCFCECCCE120C9B900111
:100EC8001CEFF0E4A3F0A3F0A3F0A3F0A3741002C6
:100ED80010AA900128E0FEA3E0FFD394B8EE940B8B
:100EE800406CD3EF9470EE94175063900122E0FAAF
:100EF800A3E0FB7C007D0AFFAE02120C9B90011A56
:100F0800EDF07C007D64AF03AE02120C9B7E007F87
:100F18000ACFCDCFCECCCE120C9BA3EFF0900122FE
:100F2800E0FEA3E0FF7C037DE8120C9B7E007F645B
:100F3800CFCDCFCECCCE120C9B90011CEFF0E4A30A
:100F4800F0A3F0A3F0A37410F0E4A30210AA900198
:100F580028E0FEA3E0FFD39470EE94175003020F2D
:100F6800EED3EF9428EE9423507C900126E0FAA368
:100F7800E0FB7C007D0AFFAE02120C9B90011AED8B
:100F8800F07C007D64AF03AE02120C9B7E007F0AEA
:100F9800CFCDCFCECCCE120C9BA3EFF0900126A3E1
:100FA800E07C037DE8FFAE02120C9B7E007F64CFDD
:100FB800CDCFCECCCE120C9B90011CEFF07C277DC0
:100FC80010AF03AE02120C9B7E037FE8CFCDCFCECD
:100FD800CCCE120C9BA3EFF0E4A3F0A37410F0E4C2
:100FE800A3F0A30210AA900128E0FEA3E0FFD39487
:100FF80028EE9423404ED3EF94E0EE942E50459083
:101008000086E024D090011AF0900085E024D0906A
:10101800011BF0A37410F0900083E024D090011D10
:10102800F0900082E024D090011EF0A37410F0909C
:101038000080E024D0900120F090007FE024D09040
:101048000121805E900128E0FEA3E0FFD394E0EE4A
:10105800942E4058D3EF9498EE943A504F90008BCA
:10106800E0FD75F00AA4FFA3E0FC2F90012FF0909B
:101078000088E0FB75F00AA4FFA3E0FE2F90013082
:10108800F0EC24D090011AF0ED24D0A3F0A3741052
:10109800F0EE24D0A3F0EB24D0A3F0A37410F0A3B7
:1010A800F0A3F07B017A01791A121CC8D3900129A8
:1010B800E09498900128E0943A4004E4F0A3F0907A
:1010C800017FE0FF6401600890017EE0FEB4010B3F
:1010D800C280EF64016027D2818023EEB4021B90A6
:1010E800017FE07015D390012BE0948490012AE0F1
:1010F80094034006C280D2818004D280C281D390FA
:10110800012BE094D090012AE094074004E4F0A376
:10111800F020A00C121FAC20A00630A0FD121FB5B5
:1011280020A10E121FAC20A10830A1FD7F0F1211C3
:071138003F121FBB020D7AFC
:03002300021EB802
:091EB800C0E0C0D075D000C007E5
:0B1EC100C2AC309804AF99C298D2ACBC
:071ECC00D007D0D0D0E032B6
:10165B00222B38363133383030323530353030227A
:10166B0000223135363535333636373036220041A8
:10167B00544530004F4B0041542B434D47463D31B1
:10168B00003E0041542B435245473F0041542B43EE
:10169B00434C4B3F0D0A0041542B434C54533D31AB
:1016AB000D0A0041542B435343413D000000000001
:1016BB00000000000000000000000000000000001F
:1016CB00000000000000000000000000000000000F
:1016DB00000000000041542B434D47533D000000D8
:1016EB0000000000000000000000000000000000EF
:1016FB0000000000000000000000000000000000DF
:0D170B00000000000000002B43434C4B3A4F
:1013F0004100100041001400420018000043001199
:10140000FF165B430015FF166C500000506C6561C1
:0C14100073652048656C70206D69210038
:10000E00E4FF7E6490001AE4F0A3DEFCE49000149A
:01001E00F0F1
:01001F0022BE
:101CFD0090016FEBF0A3EAF0A3E9F090016FE0F92A
:101D0D00A3E0FAA3E0900175C9F0A3EAF0A3E9F00E
:101D1D007B017A00791A1214DFE94A4B60037F01C7
:041D2D00227F0022EF
:0B159E00900164EBF0A3EAF0A3E9F079
:1015A90090016CEBF0A3EAF0A3E9F012000EE490CD
:1015B900016BF002164F90016BE060030216589020
:1015C9000167E0FBA3E0FAA3E0F9121CFDEF706FDD
:1015D900900019E004F07006900018E004F0900102
:1015E9006AE0FF7E007C017D2C120C89D3900019E2
:1015F900E09F900018E09E40BDE4F0A3F090016CDC
:10160900E0F9A3E0FAA3E0900164C9F0A3EAF0A32A
:10161900E9F0900164E0FBA3E0FAA3E0F9120C43BE
:10162900FF600F121F83900165E475F001120CF041
:1016390080E07F0D121F837F0A121F830215BF905E
:10164900016B7401F0E4900018F0A3F00215BF02D9
:02165900000E81
:1019E80078327C017D017BFF7A1679AE7E007F32EA
:1019F800120C1D90016774FFF0A37416F0A3747F96
:101A0800F0A37403F07BFF7A16797A12159E900181
:101A18006774FFF0A37416F0A3747FF0A37403F047
:101A28007BFF7A16798212159E900011E0F9A3E0E7
:101A3800FAA3E0900167C9F0A3EAF0A3E9F07B01FB
:101A48007A017932121B5490016774FFF0A374165F
:101A5800F0A3747FF0A37403F07B017A017932025A
:021A6800159EC9
:101BBF0078327C017D017BFF7A1679E07E007F32DF
:101BCF00120C1D900015E0F9A3E0FAA3E090016755
:101BDF00C9F0A3EAF0A3E9F07B017A017932121B75
:101BEF005490016774FFF0A37416F0A3748CF0A3E4
:101BFF007403F07B017A01793212159E7B017A0012
:0A1C0F007900121D647F1A021F8382
:101AE400E49001F5F012000E9001F5E0706112002F
:101AF4000E7BFF7A16798E121D647F0D121F837F71
:101B04000A121F837F267E02121E98E49001F6F0CB
:101B14009001F6E0FFC3946450CE741A2FF582E46A
:101B24003400F583E0B43A1F9001F6E0241EF582F8
:101B3400E43400F583E0FF64316004EFB4350890C9
:0F1B440001F57401F080A19001F6E004F080C17A
:011B5300226F
:061FB5001219E8021BBF37
:091FA3007BFF7A167997021D6498
:1019630078327C017D017BFF7A1779127E007F0636
:10197300120C1DE4FF741A2FF582E43400F583E0A2
:10198300FEB4220F74192FF582E43400F583E0646A
:10199300206014EE6422704674192FF582E434003B
:1019A300F583E0643A70377E1990007EE4F0A3DE9D
:1019B300FCE4FEEF2E241AF582E43400F583E0FD07
:1019C300747E2EF582E43400F583EDF00EEEB41947
:1019D300E2747E2EF582E43400F583E4F0220FEF07
:0419E3006464709137
:0119E70022DD
:0C1F6B007BFF7A1679A2121D64021AE4B2
:03004300021C910B
:101C9100C0E0C083C082C0D0E59A30E021539AFEF3
:101CA100900014E0241AF582E43400F583E59BF0FA
:101CB100900014E004F0E0D394644002E4F0D0D04A
:071CC100D082D083D0E03295
:10141C004201D100004401D3000000004201C5008C
:03142C0000C100FC
:0D1F4400E4F58AF58CD2B3121DF4C2B3226D
:101A6A00121F4420B2033000FAD28C30B203300085
:101A7A00FAC28CAF8CEFFEAD8A7C00E42DFFEC3EFF
:101A8A009001D1F0A3EFF0E4F58CF58A9001D1E052
:101A9A00FCA3E0FDE4120A937B297A5C79EF783F94
:101AAA001208E8E4FBFA79C878421209F19001D3E6
:101ABA00120D2A9001D3E0FCA3E0FDA3E0FEA3E00F
:101ACA00FF120ACC900132EEF0A3EFF0300002C20E
:091ADA00009001C5EEF0A3EFF04D
:011AE30022E0
:101ED300759850538E7F5389F0438901E4F58AF551
:081EE3008CC28DC28CD2A92231
:03002000021ED3EA
:03000B00021FD5FC
:031FD500D2003205
:10142F004101040141011300460097AA0B0101B7C6
:10143F00FF4500B6AA1B00ACFF4500C0AA0400AED2
:10144F00FF4500BBAA0900B3FF460114AA13010010
:10145F00D2FF4700C5AA07020001B4FF4700CCAA7C
:10146F0007020002B5FF4700D3AA07020003B6FF29
:10147F004700DAAA07020004B7FF4700E1AA0702F4
:10148F000005B8FF4700E8AA07020006B9FF4700AA
:10149F00EFAA07020007BAFF4700F6AA07020008E3
:1014AF00BBFF4700FDAA07020009BCFF470105AAC1
:1014BF000702000ABDFF47010CAA0702000BBEFF7F
:101F0300759850438920758DFDD28ED299D2ACD26B
:021F1300AF22FB
:10113F00A907EFC3940A40030211D6EF940050039E
:10114F000211D690009D74AAF0A3741BF0A374062D
:10115F00F0A37432F0A314F09000A314F0EF75F025
:10116F000A84E5F02430A3F0A37432F0A3F09000CA
:10117F009EE0FF90009DE02FFFE433FE90009FE084
:10118F007C002FFFEC3EFEA3E02FFFEC3EFEA3E022
:10119F002FFFEC3EFEA3E02FFFEC3EFEA3E02FFF60
:1011AF00EC3EFEA3E02FFFEC3EFEA3E02FFFEC3E54
:1011BF00FEA3E02FEC3EA3F0900104740BF090011E
:1011CF00137401F0D2AC22E9640A60030212639037
:1011DF00009D74AAF0A3741BF0A37406F0A37432DD
:1011EF00F0A314F0A3F0A314F0A37432F0A3F0F063
:1011FF0004F090009EE0FD90009DE02DFD90009F7B
:10120F00E02DFDA3E02DFDA3E02DFDA3E02DFDA31B
:10121F00E02DFDA3E02DFDA3E02DFDA3EDF090014A
:10122F0004740AF0E4900113F0900104E0FE9001C1
:10123F0013E0FDC39E400302139B749D2DF582E4C2
:10124F003400F583E0F599900113E004F03099FD37
:10125F00C29980D5E9C3940A50030212FEE994148F
:10126F0040030212FE90009D74AAF0A3741BF0A31A
:10127F007406F0A37432F0A314F0A3F0E975F00A2A
:10128F0084E5F02430A3F0A37432F0A3F090009E15
:10129F00E0FF90009DE02FFF90009FE02FFFA3E065
:1012AF002FFFA3E02FFFA3E02FFFA3E02FFFA3E06B
:1012BF002FFFA3E02FFFA3EFF0900104740AF0E4D7
:1012CF00900113F0900104E0FF900113E0FEC39F23
:1012DF00400302139B749D2EF582E43400F583E0E6
:1012EF00F599900113E004F03099FDC29980D590E3
:1012FF00009D74AAF0A3741BF0A37408F0A37432BA
:10130F00F0A314F0A314F0E975F00A842430A3F0CD
:10131F00A37431F0E975F00A84E5F02430A3F0A34B
:10132F007432F0A3F090009EE0FF90009DE02FFF3D
:10133F0090009FE02FFFA3E02FFFA3E02FFFA3E07C
:10134F002FFFA3E02FFFA3E02FFFA3E02FFFA3E0CA
:10135F002FFFA3E02FFFA3EFF0900104740CF0E434
:10136F00900113F0900104E0FF900113E0FEC39F82
:10137F00501A749D2EF582E43400F583E0F59990B0
:0D138F000113E004F03099FDC29980D822CE
:10004600AC07ECC3940A4003020312EC940050037D
:10005600020312ED940A400302013A90009D74AA2D
:10006600F0A3741BF0A37406F0A37432F0A304F09B
:10007600A37430F0EC75F00A84E5F02430A3F0A305
:100086007432F0A37434F0A37430F0ED75F00A8482
:10009600E5F02430A3F0A37432F0A37435F0900099
:1000A6009EE0FF90009DE02FFFE433FE90009FE06E
:1000B6007A002FFFEA3EFEA3E02FFFEA3EFEA3E012
:1000C6002FFFEA3EFEA3E02FFFEA3EFEA3E02FFF4E
:1000D600EA3EFEA3E02FFFEA3EFEA3E02FFFEA3E44
:1000E600FEA3E02FFFEA3EFEA3E02FFFEA3EFEA3BB
:1000F600E02FFFEA3EFEA3E02FEA3EA3F0900104C4
:10010600740EF09001137401F0900104E0FF900169
:1001160013E0FEC39F40030208E7749D2EF582E4B8
:100126003400F583E0F599900113E004F03099FD71
:10013600C29980D5ED640A600302021390009D7493
:10014600AAF0A3741BF0A37406F0A37432F0A30400
:10015600F0A37430F0EC75F00A84E5F02430A3F0D7
:10016600A37432F0A37434F0A37431F0A314F0A393
:100176007432F0A37435F090009EE0FF90009DE08D
:100186002FFFE433FE90009FE07A002FFFEA3EFE49
:10019600A3E02FFFEA3EFEA3E02FFFEA3EFEA3E028
:1001A6002FFFEA3EFEA3E02FFFEA3EFEA3E02FFF6D
:1001B600EA3EFEA3E02FFFEA3EFEA3E02FFFEA3E63
:1001C600FEA3E02FFFEA3EFEA3E02FFFEA3EFEA3DA
:1001D600E02FEA3EA3F0900104740EF09001137430
:1001E60001F0900104E0FF900113E0FEC39F40037D
:1001F6000208E7749D2EF582E43400F583E0F59954
:10020600900113E004F03099FDC29980D590009DCD
:1002160074AAF0A3741BF0A37406F0A37432F0A3BF
:1002260004F0A37430F0EC75F00A84E5F02430A3F2
:10023600F0A37432F0A37434F07430F0ED75F00A64
:10024600842430A3F0A37431F0A314F0A3F0ED7569
:10025600F00A84E5F02430A3F0A37432F0A37435D9
:10026600F090009EE0FF90009DE02FFFE433FE90AB
:10027600009FE07A002FFFEA3EFEA3E02FFFEA3E52
:10028600FEA3E02FFFEA3EFEA3E02FFFEA3EFEA319
:10029600E02FFFEA3EFEA3E02FFFEA3EFEA3E02F9B
:1002A600FFEA3EFEA3E02FFFEA3EFEA3E02FFFEAB1
:1002B6003EFEA3E02FFFEA3EFEA3E02FFFEA3EFE4E
:1002C600A3E02FFFEA3EFEA3E02FFFEA3EFEA3E0F7
:1002D6002FEA3EA3F09001047411F090011374010B
:1002E600F0900104E0FF900113E0FEC39F4003027B
:1002F60008E7749D2EF582E43400F583E0F59990C5
:100306000113E004F03099FDC29980D5EC640A60CF
:10031600030205ADEDC3940A40030203EF90009D6E
:1003260074AAF0A3741BF0A37406F0A37432F0A3AE
:1003360004F0A37431F0A314F0A37432F0A3743460
:10034600F0A37430F0ED75F00A84E5F02430A3F0E4
:10035600A37432F0A37435F090009EE0FF90009DE8
:10036600E02FFFE433FE90009FE07A002FFFEA3E85
:10037600FEA3E02FFFEA3EFEA3E02FFFEA3EFEA328
:10038600E02FFFEA3EFEA3E02FFFEA3EFEA3E02FAA
:10039600FFEA3EFEA3E02FFFEA3EFEA3E02FFFEAC0
:1003A6003EFEA3E02FFFEA3EFEA3E02FFFEA3EFE5D
:1003B600A3E02FEA3EA3F0900104740EF09001131F
:1003C6007401F0900104E0FF900113E0FEC39F402A
:1003D600030208E7749D2EF582E43400F583E0F508
:1003E60099900113E004F080DAED640A60030204D8
:1003F600BB90009D74AAF0A3741BF0A37406F0A32F
:100406007432F0A304F0A37431F0A314F0A3743291
:10041600F0A37434F0A37431F0A314F0A37432F093
:10042600A37435F090009EE0FF90009DE02FFFE45E
:1004360033FE90009FE07A002FFFEA3EFEA3E02FF6
:10044600FFEA3EFEA3E02FFFEA3EFEA3E02FFFEA0F
:100456003EFEA3E02FFFEA3EFEA3E02FFFEA3EFEAC
:10046600A3E02FFFEA3EFEA3E02FFFEA3EFEA3E055
:100476002FFFEA3EFEA3E02FFFEA3EFEA3E02FEAAF
:100486003EA3F0900104740EF09001137401F090F5
:100496000104E0FF900113E0FEC39F40030208E75A
:1004A600749D2EF582E43400F583E0F599900113EE
:1004B600E004F080DA90009D74AAF0A3741BF0A308
:1004C6007406F0A37432F0A304F0A37431F0A314FD
:1004D600F0A37432F0A37434F07430F0ED75F00AC2
:1004E600842430A3F0A37431F0A314F0A3F0ED75C7
:1004F600F00A84E5F02430A3F0A37432F0A3743537
:10050600F090009EE0FF90009DE02FFFE433FE9008
:10051600009FE07A002FFFEA3EFEA3E02FFFEA3EAF
:10052600FEA3E02FFFEA3EFEA3E02FFFEA3EFEA376
:10053600E02FFFEA3EFEA3E02FFFEA3EFEA3E02FF8
:10054600FFEA3EFEA3E02FFFEA3EFEA3E02FFFEA0E
:100556003EFEA3E02FFFEA3EFEA3E02FFFEA3EFEAB
:10056600A3E02FFFEA3EFEA3E02FFFEA3EFEA3E054
:100576002FEA3EA3F09001047411F0900113740168
:10058600F0900104E0FF900113E0FEC39F400302D8
:1005960008E7749D2EF582E43400F583E0F5999022
:1005A6000113E004F080DAEDC3940A40030206B8B2
:1005B60090009D74AAF0A3741BF0A37406F0A374B4
:1005C60032F0A304F0A37430F0EC75F00A84243002
:1005D600A3F0A37431F0A314F0A3F0EC75F00A8431
:1005E600E5F02430A3F0A37432F0A37434F0A374BE
:1005F60030F0ED75F00A84E5F02430A3F0A37432F0
:10060600F0A37435F090009EE0FF90009DE02FFF70
:10061600E433FE90009FE07A002FFFEA3EFEA3E05F
:100626002FFFEA3EFEA3E02FFFEA3EFEA3E02FFFE8
:10063600EA3EFEA3E02FFFEA3EFEA3E02FFFEA3EDE
:10064600FEA3E02FFFEA3EFEA3E02FFFEA3EFEA355
:10065600E02FFFEA3EFEA3E02FFFEA3EFEA3E02FD7
:10066600FFEA3EFEA3E02FFFEA3EFEA3E02FFFEAED
:100676003EFEA3E02FFFEA3EFEA3E02FEA3EA3F0F4
:100686009001047412F09001137401F0900104E0DB
:10069600FF900113E0FEC39F40030208E7749D2EFE
:1006A600F582E43400F583E0F599900113E004F057
:1006B60080DAED640A60030207BA90009D74AAF01E
:1006C600A3741BF0A37406F0A37432F0A304F0A382
:1006D6007430F0EC75F00A842430A3F0A37431F082
:1006E600A314F0A3F0EC75F00A84E5F02430A3F02F
:1006F600A37432F0A37434F0A37431F0A314F0A3FE
:100706007432F0A37435F090009EE0FF90009DE0F7
:100716002FFFE433FE90009FE07A002FFFEA3EFEB3
:10072600A3E02FFFEA3EFEA3E02FFFEA3EFEA3E092
:100736002FFFEA3EFEA3E02FFFEA3EFEA3E02FFFD7
:10074600EA3EFEA3E02FFFEA3EFEA3E02FFFEA3ECD
:10075600FEA3E02FFFEA3EFEA3E02FFFEA3EFEA344
:10076600E02FFFEA3EFEA3E02FFFEA3EFEA3E02FC6
:10077600FFEA3EFEA3E02FFFEA3EFEA3E02FEA3E9D
:10078600A3F09001047412F09001137401F090012B
:1007960004E0FF900113E0FEC39F40030208E774E4
:1007A6009D2EF582E43400F583E0F599900113E07F
:1007B60004F080DA90009D74AAF0A3741BF0A37471
:1007C60006F0A37432F0A304F0A37430F0EC75F0D5
:1007D6000A842430A3F0A37431F0A314F0A3F0EC40
:1007E60075F00A84E5F02430A3F0A37432F0A37404
:1007F60034F0A37430F0ED75F00A842430A3F0A32E
:100806007431F0A314F0A3F0ED75F00A84E5F0243A
:1008160030A3F0A37432F0A37435F090009EE0FF8D
:1008260090009DE02FFFE433FE90009FE07C002FB8
:10083600FFEC3EFEA3E02FFFEC3EFEA3E02FFFEC15
:100846003EFEA3E02FFFEC3EFEA3E02FFFEC3EFEB4
:10085600A3E02FFFEC3EFEA3E02FFFEC3EFEA3E05D
:100866002FFFEC3EFEA3E02FFFEC3EFEA3E02FFFA2
:10087600EC3EFEA3E02FFFEC3EFEA3E02FFFEC3E96
:10088600FEA3E02FFFEC3EFEA3E02FFFEC3EFEA30F
:10089600E02FFFEC3EFEA3E02FFFEC3EFEA3E02F91
:1008A600FFEC3EFEA3E02FFFEC3EFEA3E02FEC3E66
:1008B600A3F09001047416F09001137401F09001F6
:1008C60004E0FF900113E0FEC39F5015749D2EF5C2
:1008D60082E43400F583E0F599900113E004F0809A
:0208E600DD2211
:0414CF004101F700E0
:10002600D201D297121FC7C297121F99D297121FD9
:0B003600C100A2979201121F99A201C5
:01004100229C
:051D970090013CEFF09B
:101D9C00E4A3F0C297121FC790013CE0FF13929787
:101DAC00EFC313F0121FC100D297121FC790013D51
:091DBC00E004F0E0C3940840DAF1
:011DC50022FB
:101C1900E490013DF0C297121FC7D297121FCC90D2
:101C2900013CE0FFC313F0309706E04480F08007E1
:101C390090013CE0547FF0121FC190013DE004F097
:0B1C4900E0C3940840CF90013CE0FF96
:011C5400226D
:10171800E4900136F0A3F0A3F0A3F0A3F0A3F01235
:10172800002650030217BF7FCC121D977F44121D5D
:101738009712002650030217BF7FCC121D977FBE59
:10174800121D97121C19900136E4F0A3EFF0121C39
:10175800197E00900138EEF0A3EFF0A3EEF0A3EFAE
:10176800F0E07F00FE90013AF0A3EFF0900136E040
:101778004EFEA3E0FF90013AEEF0A3EFF0FDAC06B9
:10178800E4120A93E4FBFA7980783D1208E89001A4
:1017980032120D2AE4FFFE7D207C41900132E0F8F0
:1017A800A3E0F9A3E0FAA3E0FB1208E8120ACC9040
:0F17B800013AEEF0A3EFF090013AE0FEA3E0FF5C
:0117C70022FF
:101DC600758921759850E4F58CF58AD28CD2A9D202
:101DD6008ED299D2AF758DFD758BFDC2ABD2AFD2C7
:0E1DE600AC759A50759CFD758E1075AF01227C
:080003008F993099FDC299228A
:101D3100900132EBF0A3EAF0A3E9F0900132E0FB6D
:101D4100A3E0FAA3E0F9120C436017900132A3E477
:101D510075F001120D06A9F0FA120C43FF120003EF
:031D610080D92204
:0B1F83008F9BE59A30E1FB539AFD2292
:101D6400900164EBF0A3EAF0A3E9F0900164E0FBD6
:101D7400A3E0FAA3E0F9120C436017900164A3E412
:101D840075F001120D06A9F0FA120C43FF121F831D
:031D940080D922D1
:101E9800E4FDFCC3ED9FEC9E5015E4FBFA0BBB0080
:0F1EA800010AEB647B4A70F50DBD00010C80E46C
:011EB7002208
:101DF40000000000000000000000000000000000DF
:101E040000000000000000000000000000000000CE
:0D1E1400000000000000000000000000229F
:0B1F8E00EF1FAC0670011E4C70F62225
:041FC7007F04DFFEB6
:011FCB0022F3
:051FBB007F0CDFFE00B9
:011FC00022FE
:041FCC007F1ADFFE9B
:011FD00022EE
:051FC1007FA4DFFE001B
:011FC60022F8
:091F99007FFB7E04DEFEDFFA008E
:011FA200221C
:081FAC007F617E8DDEFEDFFA8D
:011FB400220A
:0C1F51007F737E547D32DDFEDEFADFF689
:011F5D002261
:101E7500C0F9A4B0999282F880908040201008049F
:101E85000201C0F9A4B0999282F880908CBFC6A1D6
:031E950086FFBF06
:0B14D3004801D70000000000000000EE
:0F1E4C00E02487F582E4341EF583E493FF7E00E3
:101E5B007D08EF30E704D2968002C296EF25E0FFB3
:091E6B00EE33FEC294D294DDE9CD
:011E7400224B
:101854009001DF121E4C7F017E00121E5BC295D2E6
:10186400959001E0121E4C7F027E00121E5BC29511
:10187400D2959001E1121E4C7F047E00121E5BC2C1
:1018840095D2959001E2121E4C7F087E00121E5BD9
:10189400C295D2959001E3121E4C7F107E00121E59
:1018A4005BC295D2959001E4121E4C7F207E0012FB
:1018B4001E5BC295D2959001E5121E4C7F407E00BE
:1018C400121E5BC295D2959001E6121E4C7F807E5B
:0818D40000121E5BC295D295C3
:0118DC0022E9
:0B1CC800900132EBF0A3EAF0A3E9F07A
:101CD300E4FF900132E0FBA3E0FAA3E0F98F827501
:101CE3008300120C5CFE74DF2FF582E43401F5836C
:0A1CF300EEF00FEFB408DB02185406
:0F1F2700D291D290121FBBC291121FBBC2902247
:0C1F7700C291D290121FBBD291021FBB7E
:0E1F3600A2019291D290121FBBC290021FBB5B
:0D1F5E00D290121FBBA291C290121FBB2295
:051E2100900134EFF018
:101E2600E4A3F0900134E0FF25E0F09291D2901205
:101E36001FBBC290121FBB900135E004F0E0C394B3
:061E46000840E0021F5EEF
:101C5500E4900134F0D291900133F0900134E0FF2B
:101C650025E0F0D290121FBB900134E0FFA291E471
:101C750033FEEF4EF0C290121FBB900133E004F02B
:0B1C8500E0C3940840D5900134E0FF5C
:011C90002231
:101EEB00900133EFF0121F277F46121E2190013312
:081EFB00E0FF121E21021F7717
:1018DD007F01121EEB7F10121EEB121F51121F27DC
:1018ED007F47121E21E4900132F0121C55900132F7
:1018FD00E0FE24EDF582E43401F583EFF0EEB40360
:10190D0004D2018002C201121F36900132E004F0B0
:10191D00E0C3940340D4121F77121FAC9001EDE089
:10192D00FF9001EBE4F0A3EFF0E0FE9001EEE07C20
:10193D00002400FFEC3EFE9001EBF0A3EFF0FDACB8
:10194D0006EC120A937B9A7A997999783F1209F1EC
:06195D009001E7020D2AD3
:101F15009001E7E0FCA3E0FDA3E0FEA3E0FF120AC9
:011F2500CCEF
:011F26002298
:1008E800EC4D6011E8497017ED33EC3304600DE40A
:1008F800FCFFFEFD22E933E8330470F8020B3812DE
:100908000B0358046009E4CC2481500628500902DE
:100918000B42284003020B3FC0E0EB4A7044B98009
:1009280006D0E0FB020B2EEF4E701CBD8008EBFFDB
:10093800EAFEE9FD80EBE98DF0A4FEE5F00209D1BD
:10094800E9CDF9EAFEEBFFEF89F0A4FCE5F0CE89EA
:10095800F0A42EFFE435F0CD89F0A42DFEE435F0A7
:100968008067EF4E7005BD80D780C3EF8BF0A4ACD5
:10097800F0EE8BF0A42CFCE435F0F8EF8AF0A42C10
:10098800E5F038FCE433CB8DF0A42CFCE5F03BF823
:10099800EE8AF0A42CFCE5F038F8E433CF89F0A413
:1009A8002CFCE5F038CF3400CE89F0A42FFFE5F019
:1009B8003EFEE433C98DF0A42EFEE5F039CD8AF071
:1009C800A42FFFE5F03EFEE43DFD33D0E0FB5007E9
:1009D8000BBB000F020B42EC2CFCEF33FFEE33FE97
:0609E800ED33FD020B1AC5
:1009EE00020B42EC5D046005E859047003020B38FB
:1009FE00120B03580460F6EC4860F2EC7004FDFE36
:100A0E00FF22C860DB2481C85009C39860025006DB
:100A1E00020B3F9850CAF582E9294B4A7005AB820A
:100A2E00020B2E75F0007C1A7880C3EF9BEE9AEDC8
:100A3E0099400DC3EF9BFFEE9AFEED99FDE842F053
:100A4E00DC23ACF0D0E0FFD0E0FED0E0FDAB8220A6
:100A5E00E7101BEB60BAEC2CFCEF33FFEE33FEED30
:100A6E0033FD020B1AE803F830E705C0F075F0000D
:100A7E00EF2FFFEE33FEED33FD40B830E7C280AA14
:100A8E0075F020800E75F010800575F0087D007EE3
:100A9E00007F003392D530D503120D1CEC3340107D
:100AAE00EF33FFEE33FEED33FDEC33FCD5F0ED22EC
:0E0ABE00E5F0247EA2D513CC92E7CDCEFF2228
:100ACC00EDD2E7CD33EC3392D524814006E4FFFE22
:100ADC00FDFC22FCE4CFCECDCC24E0501174FF8081
:100AEC00EDC3CC13CCCD13CDCE13CECF13CF04701E
:070AFC00F030D5DE020D1CF5
:100B0300E9D2E7C933E833F892D5EDD2E7CD33EC38
:070B130033FC5002B2D522B1
:100B1A00EC30E7100FBF000C0EBE00080DBD00043C
:100B2A000BEB6014A2D5EB13FCED92E7FD2274FFE8
:100B3A00FCFDFEFF22E480F8A2D574FF13FC7D8041
:030B4A00E480EF55
:030000000217C81C
:0C17C800787FE4F6D8FD75812002180F30
:100B4D00E709F608DFFA8046E709F208DFFA803E8A
:100B5D0088828C83E709F0A3DFFA8032E309F60877
:100B6D00DFFA8078E309F208DFFA807088828C83DF
:100B7D00E309F0A3DFFA806489828A83E0A3F60893
:100B8D00DFFA805889828A83E0A3F208DFFA804C6D
:100B9D0080D280FA80C680D4806980F28033801044
:100BAD0080A680EA809A80A880DA80E280CA8033AD
:100BBD0089828A83ECFAE493A3C8C582C8CCC58325
:100BCD00CCF0A3C8C582C8CCC583CCDFE9DEE780F5
:100BDD000D89828A83E493A3F608DFF9ECFAA9F074
:100BED00EDFB2289828A83ECFAE0A3C8C582C8CCCA
:100BFD00C583CCF0A3C8C582C8CCC583CCDFEADEE3
:100C0D00E880DB89828A83E493A3F208DFF980CC44
:100C1D0088F0EF60010E4E60C388F0ED2402B4043D
:100C2D000050B9F582EB2402B4040050AF232345E4
:060C3D008223900B9D7361
:100C4300BB010689828A83E0225002E722BBFE02AF
:090C5300E32289828A83E49322E2
:100C5C00BB010CE58229F582E5833AF583E022504D
:100C6C0006E92582F8E622BBFE06E92582F8E22297
:0D0C7C00E58229F582E5833AF583E49322B1
:100C8900EF8DF0A4A8F0CF8CF0A428CE8DF0A42E7F
:020C9900FE2239
:100C9B00BC000BBE0029EF8DF084FFADF022E4CC3D
:100CAB00F875F008EF2FFFEE33FEEC33FCEE9DEC06
:100CBB00984005FCEE9DFE0FD5F0E9E4CEFD22ED4C
:100CCB00F8F5F0EE8420D21CFEADF075F008EF2F96
:100CDB00FFED33FD4007985006D5F0F222C398FD87
:050CEB000FD5F0EA2224
:100CF000C5F0F8A3E028F0C5F0F8E582158270028F
:060D00001583E038F0222B
:100D0600A3F8E0C5F025F0F0E582158270021583A0
:060D1600E0C838F0E822FD
:0E0D1C00C3E49FFFE49EFEE49DFDE49CFC22E8
:0C0D2A00ECF0A3EDF0A3EEF0A3EFF0223C
:101B5400900164EBF0A3EAF0A3E9F090016AEBF0E2
:101B6400A3EAF0A3E9F0900164E0FBA3E475F001BB
:101B7400120D06A9F0FA120C4370EB90016574FF84
:101B8400F5F0120CF0900167E0FBA3E475F001128C
:101B94000D06A9F0FA120C43FF900164E0FBA3E4E4
:101BA40075F001120D06A9F0FAEF120D3670D690F9
:0B1BB400016AE0FBA3E0FAA3E0F922C5
:1014DF00900172EBF0A3EAF0A3E9F0A3E0FBA3E025
:1014EF00FAA3E0F9120C43700302158B900172E01E
:1014FF00FBA3E0FAA3E0F9120C43700302159790D7
:10150F000175E0F9A3E0FAA3E0A3C9F0A3EAF0A301
:10151F00E9F0900172A3E0FAA3E0F990017BEBF000
:10152F00A3EAF0A3E9F0900178E0FBA3E0FAA3E0CF
:10153F00F9120C43FF602690017BE0FBA3E0FAA3B6
:10154F00E0F9120C436F701590017975F001120CD0
:10155F00F090017CE475F001120CF080C9900178D5
:10156F00E0FBA3E0FAA3E0F9120C437002800D90A8
:10157F000173E475F001120CF00214FB900172E09C
:0F158F00FBA3E0FAA3E0F9227B007A00790022A7
:1017D400020D48E493A3F8E493A34003F68001F2D6
:1017E40008DFF48029E493A3F85407240CC8C33316
:1017F400C4540F4420C8834004F456800146F6DFE5
:10180400E4800B010204081020408090139CE47EC5
:10181400019360BCA3FF543F30E509541FFEE493D9
:10182400A360010ECF54C025E060A840B8E493A3A0
:10183400FAE493A3F8E493A3C8C582C8CAC583CACB
:10184400F0A3C8C582C8CAC583CADFE9DEE780BE83
:0114DE00000D
:100D3600BB010689828A83F0225002F722BBFE019C
:020D4600F32296
:00000001FF
