:041CE600310D0A00B2
:100E850060440181303030303030303030303030F7
:100E9500303030303030303030303030303030304D
:100EA500303030303030303030303030303030303D
:100EB500000000000000000000000000000000002D
:100EC50000000000000000004101800041017E009B
:040ED50041017F0058
:1004A600E4900122F0A3F0A3F0A3F0A3F0A3F0A33D
:1004B600F0A3F0A3F0A3F0A3F0A3F0A3F0A3F0A39E
:1004C600F0A3F0438E40121AB7121C807BFF7A1CF1
:1004D60079E6121A22900129E004F07006900128AC
:1004E600E004F090012BE004F0700690012AE0048D
:1004F600F0900128E0FEA3E0FF7C037DE71203F9FC
:10050600ED4C7040121720900124EEF0A3EFF0C3DB
:10051600940FEE9400500890017E7401F0802590AF
:100526000124E0FEA3E0FFC3940FEE94004010EF19
:10053600941EEE9400500890017E7402F08005E44B
:1005460090017EF0900128E0FEA3E0FF7C0F7D9FE6
:100556001203F9ED4C700B1213DD900122EEF0A39D
:10056600EFF0900128E0FEA3E0FF7C1B7D5712030D
:10057600F9ED4C7023121593121C2A900126EEF009
:10058600A3EFF0C39414EE9400500890017F740119
:10059600F08005E490017FF0900128E0FEA3E0FFE3
:1005A6007C127D5B1203F9ED4C7003121CB89001AE
:1005B60028E0FEA3E0FF7C167D431203F9ED4C70A4
:1005C60003121619D3900129E094B8900128E094FB
:1005D6000B5062900124E0FAA3E0FB7C007D0AFF49
:1005E600AE021203F990011AEDF07C007D64AF03B0
:1005F600AE021203F97E007F0ACFCDCFCECCCE124B
:1006060003F9A3EFF0900124E0FEA3E0FF7C037D55
:10061600E81203F97E007F64CFCDCFCECCCE120395
:10062600F990011CEFF0E4A3F0A3F0A3F0A3F0A36C
:1006360074100207F9900128E0FEA3E0FFD394B8F6
:10064600EE940B406CD3EF9470EE941750639001C8
:1006560022E0FAA3E0FB7C007D0AFFAE021203F95A
:1006660090011AEDF07C007D64AF03AE021203F92F
:100676007E007F0ACFCDCFCECCCE1203F9A3EFF00A
:10068600900122E0FEA3E0FF7C037DE81203F97EE1
:10069600007F64CFCDCFCECCCE1203F990011CEFF4
:1006A600F0E4A3F0A3F0A3F0A37410F0E4A3020710
:1006B600F9900128E0FEA3E0FFD39470EE94175062
:1006C6000302074FD3EF9428EE9423507C90012623
:1006D600E0FAA3E0FB7C007D0AFFAE021203F9906C
:1006E600011AEDF07C007D64AF03AE021203F97EC1
:1006F600007F0ACFCDCFCECCCE1203F9A3EFF09078
:100706000126A3E07C037DE8FFAE021203F97E001A
:100716007F64CFCDCFCECCCE1203F990011CEFF083
:100726007C277D10AF03AE021203F97E037FE8CF6C
:10073600CDCFCECCCE1203F9A3EFF0E4A3F0A37491
:1007460010F0E4A3F0A30207F9900128E0FEA3E06D
:10075600FFD39428EE9423404ED3EF94E0EE942EEC
:100766005045900086E024D090011AF0900085E074
:1007760024D090011BF0A37410F0900083E024D0E5
:1007860090011DF0900082E024D090011EF0A37429
:1007960010F0900080E024D0900120F090007FE0DF
:1007A60024D0900121804C900128E0FEA3E0FFD3E5
:1007B60094E0EE942E4046D3EF9498EE943A503D52
:1007C60090008CE024D090011AF090008BE024D0A9
:1007D60090011BF0A37410F0900089E024D09001E2
:1007E6001DF0900088E024D090011EF0A37410F054
:1007F600A3F0A3F07B017A01791A1219B9D39001FB
:1008060029E09498900128E0943A4004E4F0A3F09B
:1008160090017FE0FF6401600890017EE0FEB40174
:100826000BC280EF64016027D2818023EEB4021BE5
:1008360090017FE07015D390012BE0948490012AFB
:10084600E094034006C280D2818004D280C281D364
:1008560090012BE094D090012AE094074004E4F044
:10086600A3F020A012121CC120A00C30A0FD900104
:1008760022A3E0FF120FC820A112121CC120A10C56
:1008860030A1FD900124A3E0FF120CF020A22E124D
:100896001CC120A22830A2FD900088E024D075F06B
:1008A6000AA4FFA3E024D02FFF90008BE024D0758C
:1008B600F00AA4FEA3E024D02EFD1208D820A30C33
:1008C600121CC120A30630A3FD121CCA121CD002A2
:0208D60004DB41
:03002300021BA914
:091BA900C0E0C0D075D000C007F7
:0B1BB200C2AC309804AF99C298D2ACCE
:071BBD00D007D0D0D0E032C8
:10127000222B383631333830303235303530302269
:101280000022313536353533363637303622004197
:10129000544530004F4B0041542B434D47463D31A0
:1012A000003E0041542B435245473F0041542B43DD
:1012B000434C4B3F0D0A0041542B434C54533D319A
:1012C0000D0A0041542B435343413D0000000000F0
:1012D000000000000000000000000000000000000E
:1012E00000000000000000000000000000000000FE
:1012F000000000000041542B434D47533D000000C7
:1013000000000000000000000000000000000000DD
:1013100000000000000000000000000000000000CD
:0D132000000000000000002B43434C4B3A3E
:100ED90041001000410014004200180000430011B5
:100EE900FF1270430015FF1281500000506C6561BC
:0C0EF90073652048656C70206D69210055
:101BF400E4FF7E6490001AE4F0A3DEFCE490001499
:011C0400F0EF
:011C050022BC
:1019EE0090016FEBF0A3EAF0A3E9F090016FE0F93C
:1019FE00A3E0FAA3E0900175C9F0A3EAF0A3E9F021
:101A0E007B017A00791A1210F4E94A4B60037F01C8
:041A1E00227F002201
:0B11B300900164EBF0A3EAF0A3E9F068
:1011BE0090016CEBF0A3EAF0A3E9F0121BF4E490BB
:1011CE00016BF002126490016BE0600302126D90ED
:1011DE000167E0FBA3E0FAA3E0F91219EEEF706FDE
:1011EE00900019E004F07006900018E004F09001F1
:1011FE006AE0FF7E007C017D2C1203E7D39000197C
:10120E00E09F900018E09E40BDE4F0A3F090016CCA
:10121E00E0F9A3E0FAA3E0900164C9F0A3EAF0A319
:10122E00E9F0900164E0FBA3E0FAA3E0F91203A158
:10123E00FF600F121C98900165E475F00112044EC8
:10124E0080E07F0D121C987F0A121C980211D49018
:10125E00016B7401F0E4900018F0A3F00211D402B7
:02126E001BF46F
:10169E0078327C017D017BFF7A1279C37E007F3226
:1016AE0012037B90016774FFF0A37412F0A374947D
:1016BE00F0A37403F07BFF7A12798F1211B39001AD
:1016CE006774FFF0A37412F0A37494F0A37403F084
:1016DE007BFF7A1279971211B3900011E0F9A3E013
:1016EE00FAA3E0900167C9F0A3EAF0A3E9F07B0149
:1016FE007A01793212180A90016774FFF0A37412FE
:10170E00F0A37494F0A37403F07B017A0179320292
:02171E0011B305
:1018750078327C017D017BFF7A1279F57E007F321B
:1018850012037B900015E0F9A3E0FAA3E09001674D
:10189500C9F0A3EAF0A3E9F07B017A0179321218C5
:1018A5000A90016774FFF0A37412F0A374A1F0A36A
:1018B5007403F07B017A0179321211B37B017A004E
:0A18C5007900121A557F1A021C98D0
:10179A00E4900132F0121BF4900132E07061121BE6
:1017AA00F47BFF7A1279A3121A557F0D121C987FC7
:1017BA000A121C987F267E02121B89E4900133F0DC
:1017CA00900133E0FFC3946450CE741A2FF582E47B
:1017DA003400F583E0B43A1F900133E0241EF58209
:1017EA00E43400F583E0FF64316004EFB435089017
:0F17FA0001327401F080A1900133E004F080C14E
:0118090022BC
:061CCA0012169E021875BF
:091CB8007BFF7A1279AC021A5587
:1016190078327C017D017BFF7A1379277E007F0672
:1016290012037BE4FF741A2FF582E43400F583E09A
:10163900FEB4220F74192FF582E43400F583E064B7
:10164900206014EE6422704674192FF582E4340088
:10165900F583E0643A70377E1990007EE4F0A3DEEA
:10166900FCE4FEEF2E241AF582E43400F583E0FD54
:10167900747E2EF582E43400F583EDF00EEEB41994
:10168900E2747E2EF582E43400F583E4F0220FEF54
:041699006464709184
:01169D00222A
:0C1C80007BFF7A1279B7121A5502179AEE
:030043000219821D
:10198200C0E0C083C082C0D0E59A30E021539AFE05
:10199200900014E0241AF582E43400F583E59BF00C
:1019A200900014E004F0E0D394644002E4F0D0D05C
:0719B200D082D083D0E032A7
:100F05004201D100004401D3000000004201C500A8
:030F150000C10018
:0D1C5900E4F58AF58CD2B3121AE5C2B3226D
:10172000121C5920B2033000FAD28C30B2033000C0
:10173000FAC28CAF8CEFFEAD8A7C00E42DFFEC3E4C
:101740009001D1F0A3EFF0E4F58CF58A9001D1E09F
:10175000FCA3E0FDE41201F17B297A5C79EF783F8C
:10176000120046E4FBFA79C8784212014F9001D387
:101770001204889001D3E0FCA3E0FDA3E0FEA3E007
:10178000FF12022A900132EEF0A3EFF0300002C205
:09179000009001C5EEF0A3EFF09A
:01179900222D
:101BC400759850538E7F5389F0438901E4F58AF563
:081BD4008CC28DC28CD2A92243
:031CEA00021BC416
:03000B00021CEDE7
:031CED00D20032F0
:100F18004101040141011300460097AA0B0101B7E2
:100F2800FF4500B6AA1B00ACFF4500C0AA0400AEEE
:100F3800FF4500BBAA0900B3FF460114AA1301002C
:100F4800D2FF4700C5AA07020001B4FF4700CCAA98
:100F580007020002B5FF4700D3AA07020003B6FF45
:100F68004700DAAA07020004B7FF4700E1AA070210
:100F78000005B8FF4700E8AA07020006B9FF4700C6
:100F8800EFAA07020007BAFF4700F6AA07020008FF
:100F9800BBFF4700FDAA07020009BCFF470105AADD
:100FA8000702000ABDFF47010CAA0702000BBEFF9B
:101C0600759850438920758DFDD28ED299D2ACD26B
:021C1600AF22FB
:100FC800AB07EFD394004020EF940A501B90009D8C
:100FD80074AAF0A3741BF0A37406F0A37432F0A3F0
:100FE80014F0A314F02F802BEBC3940A4060EB9409
:100FF80014505B90009D74AAF0A3741BF0A37406B0
:10100800F0A37432F0A314F0A3F0EB75F00A84E5B2
:10101800F02430A3F0A37432F0A3F090009EE0FF18
:1010280090009DE02FFF90009FE02FFFA3E02FFF8F
:10103800A3E02FFFA3E02FFFA3E02FFFA3E02FFFE4
:10104800A3E02FFFA3EFF0900104740A806F9000D3
:101058009D74AAF0A3741BF0A37408F0A37432F073
:10106800A314F0A314F0EB75F00A842430A3F0A3C2
:101078007431F0EB75F00A84E5F02430A3F0A37422
:1010880032F0A3F090009EE0FF90009DE02FFF90CB
:10109800009FE02FFFA3E02FFFA3E02FFFA3E02F87
:1010A800FFA3E02FFFA3E02FFFA3E02FFFA3E02F74
:1010B800FFA3E02FFFA3EFF0900104740CF0E4907D
:1010C8000113F0900104E0FF900113E0FEC39F506C
:1010D8001A749D2EF582E43400F583E0F5999001A9
:0C10E80013E004F03099FDC29980D8227A
:100CF000AB07EFC3940A5022EF9400401D90009D73
:100D000074AAF0A3741BF0A37406F0A37432F0A3CA
:100D10007436F0A37430F02F8051EB640A701E908B
:100D2000009D74AAF0A3741BF0A37406F0A37432A0
:100D3000F0A37436F0A37431F0A314802FEBC394A6
:100D40000A4066EB9414506190009D74AAF0A3745D
:100D50001BF0A37406F0A37432F0A37436F0A374EE
:100D600031F0EB75F00A84E5F02430A3F0A374327F
:100D7000F0A37437F090009EE0FF90009DE02FFFFD
:100D800090009FE02FFFA3E02FFFA3E02FFFA3E041
:100D90002FFFA3E02FFFA3E02FFFA3E02FFFA3EF80
:100DA000F0900104740A020E56EBD3946490009DF7
:100DB00074AA4034F0A3741BF0A37402F0A374323D
:100DC000F0A37438F090009EE0FF90009DE02FFFAC
:100DD00090009FE02FFFA3E02FFFA3E02FFFA3EFE2
:100DE000F09001047406806EF0A3741BF0A37408E5
:100DF000F0A37432F0A37436F0A37430F0EB75F006
:100E00000A842430A3F0A37431F0EB75F00A84E572
:100E1000F02430A3F0A37432F0A37437F090009E56
:100E2000E0FF90009DE02FFF90009FE02FFFA3E0E8
:100E30002FFFA3E02FFFA3E02FFFA3E02FFFA3E0EE
:100E40002FFFA3E02FFFA3E02FFFA3E02FFFA3EFCF
:100E5000F0900104740CF0E4900113F0900104E0B0
:100E6000FF900113E0FEC39F501A749D2EF582E49B
:100E70003400F583E0F599900113E004F03099FD1A
:050E8000C29980D82298
:1008D800AB05EFC3940A506BEF94004066EB940AA3
:1008E800501C90009D74AAF0A3741BF0A3740AF026
:1008F800A37432F0A304F0A37430F02F807EEBC30E
:10090800940A4022EB9414501D90009D74AAF0A301
:10091800741BF0A3740AF0A37432F0A304F0A37458
:1009280030F02F0209C890009D74AAF0A3741BF040
:10093800A3740CF0A37432F0A304F0A37430F02F66
:10094800020A4FEFC3940A5003020AC9EF941440F5
:1009580003020AC9EBC3940A503390009D74AAF0AD
:10096800A3741BF0A3740AF0A37432F0A304F0A3D9
:100978007431F0EF75F00A84E5F02430A3F0A37425
:1009880032F0A37434F0A37430F02B804AEBC39494
:100998000A5003020A2DEB94144003020A2D90001A
:1009A8009D74AAF0A3741BF0A3740AF0A37432F028
:1009B800A304F0A37431F0EF75F00A84E5F0243055
:1009C800A3F0A37432F0A37434F0A37431F0EB7580
:1009D800F00A84E5F02430A3F0A37432F0A3743550
:1009E800F090009EE0FF90009DE02FFF90009FE0B8
:1009F8002FFFA3E02FFFA3E02FFFA3E02FFFA3E02B
:100A08002FFFA3E02FFFA3E02FFFA3E02FFFA3E01A
:100A18002FFFA3E02FFFA3E02FFFA3EFF090010427
:100A2800740E020CC190009D74AAF0A3741BF0A36D
:100A3800740CF0A37432F0A304F0A37431F0EF75D2
:100A4800F00A84E5F02430A3F0A37432F0A37434E0
:100A5800F0A37430F0EB75F00A842430A3F0A3748B
:100A680031F0EB75F00A84E5F02430A3F0A374327A
:100A7800F0A37435F090009EE0FF90009DE02FFFFA
:100A880090009FE02FFFA3E02FFFA3E02FFFA3E03C
:100A98002FFFA3E02FFFA3E02FFFA3E02FFFA3E08A
:100AA8002FFFA3E02FFFA3E02FFFA3E02FFFA3E07A
:100AB8002FFFA3E02FFFA3EFF09001047410020CA6
:100AC800C1EBC3940A4003020B6690009D74AAF020
:100AD800A3741BF0A3740CF0A37432F0A304F0A366
:100AE8007430F0EF75F00A842430A3F0A37431F069
:100AF800EF75F00A84E5F02430A3F0A37432F0A374
:100B08007434F0A37430F02BA3F0A37432F0A37400
:100B180035F090009EE0FF90009DE02FFF90009F31
:100B2800E02FFFA3E02FFFA3E02FFFA3E02FFFA3F9
:100B3800E02FFFA3E02FFFA3E02FFFA3E02FFFA3E9
:100B4800E02FFFA3E02FFFA3E02FFFA3E02FFFA3D9
:100B5800E02FFFA3EFF09001047410020CC1EBC367
:100B6800940A5003020C13EB94144003020C1390E4
:100B7800009D74AAF0A3741BF0A3740CF0A3743244
:100B8800F0A304F0A37430F0EF75F00A842430A3C6
:100B9800F0A37431F0EF75F00A84E5F02430A3F087
:100BA800A37432F0A37434F0A37431F0EB75F00A37
:100BB80084E5F02430A3F0A37432F0A37435F090E8
:100BC800009EE0FF90009DE02FFF90009FE02FFF28
:100BD800A3E02FFFA3E02FFFA3E02FFFA3E02FFF49
:100BE800A3E02FFFA3E02FFFA3E02FFFA3E02FFF39
:100BF800A3E02FFFA3E02FFFA3E02FFFA3E02FFF29
:100C0800A3EFF09001047410020CC190009D74AA27
:100C1800F0A3741BF0A3740EF0A37432F0A304F0D5
:100C2800A37430F0EF75F00A842430A3F0A3743174
:100C3800F0EF75F00A84E5F02430A3F0A37432F0E5
:100C4800A37434F0A37430F0EB75F00A842430A355
:100C5800F0A37431F0EB75F00A84E5F02430A3F0CA
:100C6800A37432F0A37435F090009EE0FF90009DCD
:100C7800E02FFF90009FE02FFFA3E02FFFA3E02FBE
:100C8800FFA3E02FFFA3E02FFFA3E02FFFA3E02F98
:100C9800FFA3E02FFFA3E02FFFA3E02FFFA3E02F88
:100CA800FFA3E02FFFA3E02FFFA3E02FFFA3E02F78
:100CB800FFA3EFF09001047412F0E4900113F09098
:100CC8000104E0FF900113E0FEC39F501A749D2EAB
:100CD800F582E43400F583E0F599900113E004F01F
:080CE8003099FDC29980D82269
:040FB80041020800EA
:10002600D201D287121CDCC287121CAED287121CE8
:0B003600D600A2879201121CAEA201AE
:01004100229C
:051A8800900204EFF0E4
:101A8D00E4A3F0C287121CDC900204E0FF139287DE
:101A9D00EFC313F0121CD600D287121CDC90020586
:091AAD00E004F0E0C3940840DA03
:011AB600220D
:1018CF00E4900207F0C287121CDCD287121CE19051
:1018DF000206E0FFC313F0308706E04480F0800774
:1018EF00900206E0547FF0121CD6900207E004F03D
:0B18FF00E0C3940840CF900206E0FF19
:01190A0022BA
:10132D00E49001F9F0A3F0A3F0A3F0A3F0A3F01261
:10133D00002650030213D47FCC121A887F44121A50
:10134D008812002650030213D47FCC121A887FBE58
:10135D00121A881218CF9001F9E4F0A3EFF01218C9
:10136D00CF7E009001FBEEF0A3EFF0A3EEF0A3EF24
:10137D00F0E07F00FE9001FDF0A3EFF09001F9E0A9
:10138D004EFEA3E0FF9001FDEEF0A3EFF0FDAC06E5
:10139D00E41201F1E4FBFA7980783D1200469001E8
:1013AD00F5120488E4FFFE7D207C419001F5E0F804
:1013BD00A3E0F9A3E0FAA3E0FB12004612022A9083
:0F13CD0001FDEEF0A3EFF09001FDE0FEA3E0FFC5
:0113DC0022EE
:101AB700758921759850E4F58CF58AD28CD2A9D214
:101AC7008ED299D2AF758DFD758BFDC2ABD2AFD2D9
:0E1AD700AC759A50759CFD758E1075AF01228E
:080003008F993099FDC299228A
:101A2200900132EBF0A3EAF0A3E9F0900132E0FB7F
:101A3200A3E0FAA3E0F91203A16017900132A3E434
:101A420075F001120464A9F0FA1203A1FF12000357
:031A520080D92216
:0B1C98008F9BE59A30E1FB539AFD2280
:101A5500900164EBF0A3EAF0A3E9F0900164E0FBE8
:101A6500A3E0FAA3E0F91203A16017900164A3E4CF
:101A750075F001120464A9F0FA1203A1FF121C9873
:031A850080D922E3
:101B8900E4FDFCC3ED9FEC9E5015E4FBFA0BBB0092
:0F1B9900010AEB647B4A70F50DBD00010C80E47E
:011BA800221A
:101AE50000000000000000000000000000000000F1
:101AF50000000000000000000000000000000000E1
:0D1B050000000000000000000000000022B1
:0B1CA300EF1FAC0670011E4C70F62213
:041CDC007F04DFFEA4
:011CE00022E1
:051CD0007F0CDFFE00A7
:011CD50022EC
:041CE1007F1ADFFE89
:011CE50022DC
:101C1800121CE1121CE1121CDC121CDC121CDC027E
:021C28001CDCC2
:051CD6007FA4DFFE0009
:011CDB0022E6
:091CAE007FFB7E04DEFEDFFA007C
:011CB700220A
:081CC1007F617E8DDEFEDFFA7B
:011CC90022F8
:0C1C66007F737E547D32DDFEDEFADFF677
:011C7200224F
:101B6600C0F9A4B0999282F88090804020100804B1
:101B76000201C0F9A4B0999282F880908CBFC6A1E8
:031B860086FFBF18
:0B0FBC004801D700000000000000000A
:0F1B3D00E02478F582E4341BF583E493FF7E0007
:101B4C007D08EF30E704D2968002C296EF25E0FFC5
:091B5C00EE33FEC294D294DDE9DF
:011B6500225D
:10150A009001DF121B3D7F017E00121B4CC295D257
:10151A00959001E0121B3D7F027E00121B4CC29582
:10152A00D2959001E1121B3D7F047E00121B4CC232
:10153A0095D2959001E2121B3D7F087E00121B4C4A
:10154A00C295D2959001E3121B3D7F107E00121BBB
:10155A004CC295D2959001E4121B3D7F207E001269
:10156A001B4CC295D2959001E5121B3D7F407E002F
:10157A00121B4CC295D2959001E6121B3D7F807ECC
:08158A0000121B4CC295D29522
:011592002236
:0B19B900900132EBF0A3EAF0A3E9F08C
:1019C400E4FF900132E0FBA3E0FAA3E0F98F827513
:1019D40083001203BAFE74DF2FF582E43401F58329
:0A19E400EEF00FEFB408DB02150A65
:0F1C3C00D291D290121CD0C291121CD0C2902211
:0C1C8C00C291D290121CD0D291021CD048
:0E1C4B00A2029291D290121CD0C290021CD024
:0D1C7300D290121CD0A291C290121CD0225F
:051B1200900134EFF02A
:101B1700E4A3F0900134E0FF25E0F09291D2901217
:101B27001CD0C290121CD0900135E004F0E0C394A1
:061B37000840E0021C73EF
:10190B00E4900134F0D291900133F0900134E0FF78
:10191B0025E0F0D290121CD0900134E0FFA291E4AC
:10192B0033FEEF4EF0C290121CD0900133E004F066
:0B193B00E0C3940840D5900134E0FFA9
:01194600227E
:101BDC00900133EFF0121C3C7F46121B1290013324
:081BEC00E0FF121B12021C8C29
:101593007F01121BDC7F10121BDC121C66121C3C29
:1015A3007F47121B12E4900132F012190B900132A3
:1015B300E0FE24EDF582E43401F583EFF0EEB403AD
:1015C30004D2028002C202121C4B900132E004F0EA
:1015D300E0C3940340D4121C8C121CC19001EDE0B3
:1015E300FF9001EBE4F0A3EFF0E0FE9001EEE07C6E
:1015F300002400FFEC3EFE9001EBF0A3EFF0FDAC06
:1016030006EC1201F17B9A7A997999783F12014F8E
:061613009001E7020488CB
:101C2A009001E7E0FCA3E0FDA3E0FEA3E0FF1202BF
:011C3A002A7F
:011C3B002286
:10000E00D282121C18C282121CC1121CC1121CC137
:05001E00D282021C1853
:10194700E490013AF03082FD121C18E490013BF05C
:1019570030820204F02082FD900203E025E0FFF0D0
:1019670090013BE04F900203F090013AE004F0E071
:0A197700C3940840D0900203E0FF83
:011981002243
:1013DD00E4900132F0A3F012000ED28230820302AB
:1013ED00147D3082FD2082FD121947900136EFF0F9
:1013FD00121947900137EFF0121947900134EFF0B1
:10140D00121947900135EFF0121947900138EFF09E
:10141D00C282E4A3F0121C18900139E004F0E0C37D
:10142D00940240F1D282900137E0FF900136E0FE48
:10143D002FFF900134E0FD2FFFA3E0FC2FFF900163
:10144D0038E0B5071C9001FFEEF0900137E09002F7
:10145D0001F0900200EDF0900202ECF0900138EFF7
:10146D00F0900134E0FF7E00900132EEF0A3EFF03A
:01147D00224C
:10004600EC4D6011E8497017ED33EC3304600DE4B4
:10005600FCFFFEFD22E933E8330470F80202961233
:10006600026158046009E4CC248150062850090234
:1000760002A028400302029DC0E0EB4A7044B9800A
:1000860006D0E0FB02028CEF4E701CBD8008EBFF31
:10009600EAFEE9FD80EBE98DF0A4FEE5F002012F12
:1000A600E9CDF9EAFEEBFFEF89F0A4FCE5F0CE8995
:1000B600F0A42EFFE435F0CD89F0A42DFEE435F052
:1000C6008067EF4E7005BD80D780C3EF8BF0A4AC80
:1000D600F0EE8BF0A42CFCE435F0F8EF8AF0A42CBB
:1000E600E5F038FCE433CB8DF0A42CFCE5F03BF8CE
:1000F600EE8AF0A42CFCE5F038F8E433CF89F0A4BE
:100106002CFCE5F038CF3400CE89F0A42FFFE5F0C3
:100116003EFEE433C98DF0A42EFEE5F039CD8AF01B
:10012600A42FFFE5F03EFEE43DFD33D0E0FB500793
:100136000BBB000F0202A0EC2CFCEF33FFEE33FEEC
:06014600ED33FD0202781A
:10014C000202A0EC5D046005E859047003020296FB
:10015C00120261580460F6EC4860F2EC7004FDFE8B
:10016C00FF22C860DB2481C85009C3986002500686
:10017C0002029D9850CAF582E9294B4A7005AB8260
:10018C0002028C75F0007C1A7880C3EF9BEE9AED1E
:10019C0099400DC3EF9BFFEE9AFEED99FDE842F0FE
:1001AC00DC23ACF0D0E0FFD0E0FED0E0FDAB822051
:1001BC00E7101BEB60BAEC2CFCEF33FFEE33FEEDDB
:1001CC0033FD020278E803F830E705C0F075F00063
:1001DC00EF2FFFEE33FEED33FD40B830E7C280AABF
:1001EC0075F020800E75F010800575F0087D007E8E
:1001FC00007F003392D530D50312047AEC334010D3
:10020C00EF33FFEE33FEED33FDEC33FCD5F0ED2296
:0E021C00E5F0247EA2D513CC92E7CDCEFF22D2
:10022A00EDD2E7CD33EC3392D524814006E4FFFECC
:10023A00FDFC22FCE4CFCECDCC24E0501174FF802B
:10024A00EDC3CC13CCCD13CDCE13CECF13CF0470C8
:07025A00F030D5DE02047A4A
:10026100E9D2E7C933E833F892D5EDD2E7CD33ECE3
:0702710033FC5002B2D5225C
:10027800EC30E7100FBF000C0EBE00080DBD0004E7
:100288000BEB6014A2D5EB13FCED92E7FD2274FF93
:10029800FCFDFEFF22E480F8A2D574FF13FC7D80EC
:0302A800E480EF00
:0300000002147E69
:0C147E00787FE4F6D8FD7581200214C5CB
:1002AB00E709F608DFFA8046E709F208DFFA803E35
:1002BB0088828C83E709F0A3DFFA8032E309F60822
:1002CB00DFFA8078E309F208DFFA807088828C838A
:1002DB00E309F0A3DFFA806489828A83E0A3F6083E
:1002EB00DFFA805889828A83E0A3F208DFFA804C18
:1002FB0080D280FA80C680D4806980F280338010EF
:10030B0080A680EA809A80A880DA80E280CA803357
:10031B0089828A83ECFAE493A3C8C582C8CCC583CF
:10032B00CCF0A3C8C582C8CCC583CCDFE9DEE7809F
:10033B000D89828A83E493A3F608DFF9ECFAA9F01E
:10034B00EDFB2289828A83ECFAE0A3C8C582C8CC74
:10035B00C583CCF0A3C8C582C8CCC583CCDFEADE8D
:10036B00E880DB89828A83E493A3F208DFF980CCEF
:10037B0088F0EF60010E4E60C388F0ED2402B404E8
:10038B000050B9F582EB2402B4040050AF2323458F
:06039B0082239002FB73B7
:1003A100BB010689828A83E0225002E722BBFE025A
:0903B100E32289828A83E493228D
:1003BA00BB010CE58229F582E5833AF583E02250F8
:1003CA0006E92582F8E622BBFE06E92582F8E22242
:0D03DA00E58229F582E5833AF583E493225C
:1003E700EF8DF0A4A8F0CF8CF0A428CE8DF0A42E2A
:0203F700FE22E4
:1003F900BC000BBE0029EF8DF084FFADF022E4CCE8
:10040900F875F008EF2FFFEE33FEEC33FCEE9DECB0
:10041900984005FCEE9DFE0FD5F0E9E4CEFD22EDF6
:10042900F8F5F0EE8420D21CFEADF075F008EF2F40
:10043900FFED33FD4007985006D5F0F222C398FD31
:050449000FD5F0EA22CE
:10044E00C5F0F8A3E028F0C5F0F8E5821582700239
:06045E001583E038F022D6
:10046400A3F8E0C5F025F0F0E5821582700215834B
:06047400E0C838F0E822A8
:0E047A00C3E49FFFE49EFEE49DFDE49CFC2293
:0C048800ECF0A3EDF0A3EEF0A3EFF022E7
:10180A00900164EBF0A3EAF0A3E9F090016AEBF02F
:10181A00A3EAF0A3E9F0900164E0FBA3E475F00108
:10182A00120464A9F0FA1203A170EB90016574FF27
:10183A00F5F012044E900167E0FBA3E475F0011283
:10184A000464A9F0FA1203A1FF900164E0FBA3E487
:10185A0075F001120464A9F0FAEF12049470D6909C
:0B186A00016AE0FBA3E0FAA3E0F92212
:1010F400900172EBF0A3EAF0A3E9F0A3E0FBA3E014
:10110400FAA3E0F91203A170030211A0900172E0A6
:10111400FBA3E0FAA3E0F91203A170030211AC905F
:101124000175E0F9A3E0FAA3E0A3C9F0A3EAF0A3F0
:10113400E9F0900172A3E0FAA3E0F990017BEBF0EF
:10114400A3EAF0A3E9F0900178E0FBA3E0FAA3E0BE
:10115400F91203A1FF602690017BE0FBA3E0FAA350
:10116400E0F91203A16F701590017975F001120472
:101174004E90017CE475F00112044E80C990017810
:10118400E0FBA3E0FAA3E0F91203A17002800D9042
:101194000173E475F00112044E021110900172E023
:0F11A400FBA3E0FAA3E0F9227B007A0079002296
:10148A000204A6E493A3F8E493A34003F68001F2CE
:10149A0008DFF48029E493A3F85407240CC8C33363
:1014AA00C4540F4420C8834004F456800146F6DF32
:1014BA00E4800B0102040810204080900E85E47E2F
:1014CA00019360BCA3FF543F30E509541FFEE49327
:1014DA00A360010ECF54C025E060A840B8E493A3EE
:1014EA00FAE493A3F8E493A3C8C582C8CAC583CA19
:1014FA00F0A3C8C582C8CAC583CADFE9DEE780BED1
:010FC7000029
:10049400BB010689828A83F0225002F722BBFE0147
:0204A400F32241
:00000001FF
